{
  "_format": "hh-sol-artifact-1",
  "contractName": "Flink",
  "sourceName": "contracts/Flink.sol",
  "abi": [
    {
      "anonymous": false,
      "inputs": [
        {
          "indexed": true,
          "internalType": "address",
          "name": "owner",
          "type": "address"
        },
        {
          "indexed": true,
          "internalType": "address",
          "name": "spender",
          "type": "address"
        },
        {
          "indexed": false,
          "internalType": "uint256",
          "name": "value",
          "type": "uint256"
        }
      ],
      "name": "Approval",
      "type": "event"
    },
    {
      "anonymous": false,
      "inputs": [
        {
          "indexed": true,
          "internalType": "address",
          "name": "from",
          "type": "address"
        },
        {
          "indexed": true,
          "internalType": "address",
          "name": "to",
          "type": "address"
        },
        {
          "indexed": false,
          "internalType": "uint256",
          "name": "value",
          "type": "uint256"
        }
      ],
      "name": "Transfer",
      "type": "event"
    },
    {
      "inputs": [],
      "name": "__Flink_init",
      "outputs": [],
      "stateMutability": "nonpayable",
      "type": "function"
    },
    {
      "inputs": [
        {
          "internalType": "address",
          "name": "owner",
          "type": "address"
        },
        {
          "internalType": "address",
          "name": "spender",
          "type": "address"
        }
      ],
      "name": "allowance",
      "outputs": [
        {
          "internalType": "uint256",
          "name": "",
          "type": "uint256"
        }
      ],
      "stateMutability": "view",
      "type": "function"
    },
    {
      "inputs": [
        {
          "internalType": "address",
          "name": "spender",
          "type": "address"
        },
        {
          "internalType": "uint256",
          "name": "amount",
          "type": "uint256"
        }
      ],
      "name": "approve",
      "outputs": [
        {
          "internalType": "bool",
          "name": "",
          "type": "bool"
        }
      ],
      "stateMutability": "nonpayable",
      "type": "function"
    },
    {
      "inputs": [
        {
          "internalType": "address",
          "name": "account",
          "type": "address"
        }
      ],
      "name": "balanceOf",
      "outputs": [
        {
          "internalType": "uint256",
          "name": "",
          "type": "uint256"
        }
      ],
      "stateMutability": "view",
      "type": "function"
    },
    {
      "inputs": [
        {
          "internalType": "uint256",
          "name": "amount",
          "type": "uint256"
        }
      ],
      "name": "burn",
      "outputs": [],
      "stateMutability": "nonpayable",
      "type": "function"
    },
    {
      "inputs": [
        {
          "internalType": "address",
          "name": "account",
          "type": "address"
        },
        {
          "internalType": "uint256",
          "name": "amount",
          "type": "uint256"
        }
      ],
      "name": "burnFrom",
      "outputs": [],
      "stateMutability": "nonpayable",
      "type": "function"
    },
    {
      "inputs": [],
      "name": "decimals",
      "outputs": [
        {
          "internalType": "uint8",
          "name": "",
          "type": "uint8"
        }
      ],
      "stateMutability": "view",
      "type": "function"
    },
    {
      "inputs": [
        {
          "internalType": "address",
          "name": "spender",
          "type": "address"
        },
        {
          "internalType": "uint256",
          "name": "subtractedValue",
          "type": "uint256"
        }
      ],
      "name": "decreaseAllowance",
      "outputs": [
        {
          "internalType": "bool",
          "name": "",
          "type": "bool"
        }
      ],
      "stateMutability": "nonpayable",
      "type": "function"
    },
    {
      "inputs": [
        {
          "internalType": "address",
          "name": "spender",
          "type": "address"
        },
        {
          "internalType": "uint256",
          "name": "addedValue",
          "type": "uint256"
        }
      ],
      "name": "increaseAllowance",
      "outputs": [
        {
          "internalType": "bool",
          "name": "",
          "type": "bool"
        }
      ],
      "stateMutability": "nonpayable",
      "type": "function"
    },
    {
      "inputs": [],
      "name": "name",
      "outputs": [
        {
          "internalType": "string",
          "name": "",
          "type": "string"
        }
      ],
      "stateMutability": "view",
      "type": "function"
    },
    {
      "inputs": [],
      "name": "symbol",
      "outputs": [
        {
          "internalType": "string",
          "name": "",
          "type": "string"
        }
      ],
      "stateMutability": "view",
      "type": "function"
    },
    {
      "inputs": [],
      "name": "totalSupply",
      "outputs": [
        {
          "internalType": "uint256",
          "name": "",
          "type": "uint256"
        }
      ],
      "stateMutability": "view",
      "type": "function"
    },
    {
      "inputs": [
        {
          "internalType": "address",
          "name": "recipient",
          "type": "address"
        },
        {
          "internalType": "uint256",
          "name": "amount",
          "type": "uint256"
        }
      ],
      "name": "transfer",
      "outputs": [
        {
          "internalType": "bool",
          "name": "",
          "type": "bool"
        }
      ],
      "stateMutability": "nonpayable",
      "type": "function"
    },
    {
      "inputs": [
        {
          "internalType": "address",
          "name": "sender",
          "type": "address"
        },
        {
          "internalType": "address",
          "name": "recipient",
          "type": "address"
        },
        {
          "internalType": "uint256",
          "name": "amount",
          "type": "uint256"
        }
      ],
      "name": "transferFrom",
      "outputs": [
        {
          "internalType": "bool",
          "name": "",
          "type": "bool"
        }
      ],
      "stateMutability": "nonpayable",
      "type": "function"
    }
  ],
  "bytecode": "0x608060405234801561001057600080fd5b50611f26806100206000396000f3fe608060405234801561001057600080fd5b50600436106100ea5760003560e01c806370a082311161008c578063a457c2d711610066578063a457c2d71461025f578063a9059cbb1461028f578063dd62ed3e146102bf578063e492e1c8146102ef576100ea565b806370a08231146101f557806379cc67901461022557806395d89b4114610241576100ea565b806323b872dd116100c857806323b872dd1461015b578063313ce5671461018b57806339509351146101a957806342966c68146101d9576100ea565b806306fdde03146100ef578063095ea7b31461010d57806318160ddd1461013d575b600080fd5b6100f76102f9565b6040516101049190611b3b565b60405180910390f35b610127600480360381019061012291906115f3565b61038b565b6040516101349190611b20565b60405180910390f35b6101456103a9565b6040516101529190611cbd565b60405180910390f35b610175600480360381019061017091906115a4565b6103b3565b6040516101829190611b20565b60405180910390f35b6101936104ab565b6040516101a09190611cd8565b60405180910390f35b6101c360048036038101906101be91906115f3565b6104b4565b6040516101d09190611b20565b60405180910390f35b6101f360048036038101906101ee919061162f565b610560565b005b61020f600480360381019061020a919061153f565b610574565b60405161021c9190611cbd565b60405180910390f35b61023f600480360381019061023a91906115f3565b6105bd565b005b610249610638565b6040516102569190611b3b565b60405180910390f35b610279600480360381019061027491906115f3565b6106ca565b6040516102869190611b20565b60405180910390f35b6102a960048036038101906102a491906115f3565b6107b5565b6040516102b69190611b20565b60405180910390f35b6102d960048036038101906102d49190611568565b6107d3565b6040516102e69190611cbd565b60405180910390f35b6102f761085a565b005b60606036805461030890611e21565b80601f016020809104026020016040519081016040528092919081815260200182805461033490611e21565b80156103815780601f1061035657610100808354040283529160200191610381565b820191906000526020600020905b81548152906001019060200180831161036457829003601f168201915b5050505050905090565b600061039f6103986109b7565b84846109bf565b6001905092915050565b6000603554905090565b60006103c0848484610b8a565b6000603460008673ffffffffffffffffffffffffffffffffffffffff1673ffffffffffffffffffffffffffffffffffffffff168152602001908152602001600020600061040b6109b7565b73ffffffffffffffffffffffffffffffffffffffff1673ffffffffffffffffffffffffffffffffffffffff1681526020019081526020016000205490508281101561048b576040517f08c379a000000000000000000000000000000000000000000000000000000000815260040161048290611bfd565b60405180910390fd5b61049f856104976109b7565b8584036109bf565b60019150509392505050565b60006012905090565b60006105566104c16109b7565b8484603460006104cf6109b7565b73ffffffffffffffffffffffffffffffffffffffff1673ffffffffffffffffffffffffffffffffffffffff16815260200190815260200160002060008873ffffffffffffffffffffffffffffffffffffffff1673ffffffffffffffffffffffffffffffffffffffff168152602001908152602001600020546105519190611d0f565b6109bf565b6001905092915050565b61057161056b6109b7565b82610e0e565b50565b6000603360008373ffffffffffffffffffffffffffffffffffffffff1673ffffffffffffffffffffffffffffffffffffffff168152602001908152602001600020549050919050565b60006105d0836105cb6109b7565b6107d3565b905081811015610615576040517f08c379a000000000000000000000000000000000000000000000000000000000815260040161060c90611c1d565b60405180910390fd5b610629836106216109b7565b8484036109bf565b6106338383610e0e565b505050565b60606037805461064790611e21565b80601f016020809104026020016040519081016040528092919081815260200182805461067390611e21565b80156106c05780601f10610695576101008083540402835291602001916106c0565b820191906000526020600020905b8154815290600101906020018083116106a357829003601f168201915b5050505050905090565b600080603460006106d96109b7565b73ffffffffffffffffffffffffffffffffffffffff1673ffffffffffffffffffffffffffffffffffffffff16815260200190815260200160002060008573ffffffffffffffffffffffffffffffffffffffff1673ffffffffffffffffffffffffffffffffffffffff16815260200190815260200160002054905082811015610796576040517f08c379a000000000000000000000000000000000000000000000000000000000815260040161078d90611c9d565b60405180910390fd5b6107aa6107a16109b7565b858584036109bf565b600191505092915050565b60006107c96107c26109b7565b8484610b8a565b6001905092915050565b6000603460008473ffffffffffffffffffffffffffffffffffffffff1673ffffffffffffffffffffffffffffffffffffffff16815260200190815260200160002060008373ffffffffffffffffffffffffffffffffffffffff1673ffffffffffffffffffffffffffffffffffffffff16815260200190815260200160002054905092915050565b600060019054906101000a900460ff1680610880575060008054906101000a900460ff16155b6108bf576040517f08c379a00000000000000000000000000000000000000000000000000000000081526004016108b690611bdd565b60405180910390fd5b60008060019054906101000a900460ff16159050801561090f576001600060016101000a81548160ff02191690831515021790555060016000806101000a81548160ff0219169083151502179055505b6109836040518060400160405280600581526020017f466c696e6b0000000000000000000000000000000000000000000000000000008152506040518060400160405280600581526020017f464c494e4b000000000000000000000000000000000000000000000000000000815250610fe7565b61098b6110d4565b6109936111ad565b80156109b45760008060016101000a81548160ff0219169083151502179055505b50565b600033905090565b600073ffffffffffffffffffffffffffffffffffffffff168373ffffffffffffffffffffffffffffffffffffffff161415610a2f576040517f08c379a0000000000000000000000000000000000000000000000000000000008152600401610a2690611c7d565b60405180910390fd5b600073ffffffffffffffffffffffffffffffffffffffff168273ffffffffffffffffffffffffffffffffffffffff161415610a9f576040517f08c379a0000000000000000000000000000000000000000000000000000000008152600401610a9690611b9d565b60405180910390fd5b80603460008573ffffffffffffffffffffffffffffffffffffffff1673ffffffffffffffffffffffffffffffffffffffff16815260200190815260200160002060008473ffffffffffffffffffffffffffffffffffffffff1673ffffffffffffffffffffffffffffffffffffffff168152602001908152602001600020819055508173ffffffffffffffffffffffffffffffffffffffff168373ffffffffffffffffffffffffffffffffffffffff167f8c5be1e5ebec7d5bd14f71427d1e84f3dd0314c0f7b2291e5b200ac8c7c3b92583604051610b7d9190611cbd565b60405180910390a3505050565b600073ffffffffffffffffffffffffffffffffffffffff168373ffffffffffffffffffffffffffffffffffffffff161415610bfa576040517f08c379a0000000000000000000000000000000000000000000000000000000008152600401610bf190611c5d565b60405180910390fd5b600073ffffffffffffffffffffffffffffffffffffffff168273ffffffffffffffffffffffffffffffffffffffff161415610c6a576040517f08c379a0000000000000000000000000000000000000000000000000000000008152600401610c6190611b5d565b60405180910390fd5b610c75838383611286565b6000603360008573ffffffffffffffffffffffffffffffffffffffff1673ffffffffffffffffffffffffffffffffffffffff16815260200190815260200160002054905081811015610cfc576040517f08c379a0000000000000000000000000000000000000000000000000000000008152600401610cf390611bbd565b60405180910390fd5b818103603360008673ffffffffffffffffffffffffffffffffffffffff1673ffffffffffffffffffffffffffffffffffffffff1681526020019081526020016000208190555081603360008573ffffffffffffffffffffffffffffffffffffffff1673ffffffffffffffffffffffffffffffffffffffff1681526020019081526020016000206000828254610d919190611d0f565b925050819055508273ffffffffffffffffffffffffffffffffffffffff168473ffffffffffffffffffffffffffffffffffffffff167fddf252ad1be2c89b69c2b068fc378daa952ba7f163c4a11628f55a4df523b3ef84604051610df59190611cbd565b60405180910390a3610e0884848461128b565b50505050565b600073ffffffffffffffffffffffffffffffffffffffff168273ffffffffffffffffffffffffffffffffffffffff161415610e7e576040517f08c379a0000000000000000000000000000000000000000000000000000000008152600401610e7590611c3d565b60405180910390fd5b610e8a82600083611286565b6000603360008473ffffffffffffffffffffffffffffffffffffffff1673ffffffffffffffffffffffffffffffffffffffff16815260200190815260200160002054905081811015610f11576040517f08c379a0000000000000000000000000000000000000000000000000000000008152600401610f0890611b7d565b60405180910390fd5b818103603360008573ffffffffffffffffffffffffffffffffffffffff1673ffffffffffffffffffffffffffffffffffffffff168152602001908152602001600020819055508160356000828254610f699190611d65565b92505081905550600073ffffffffffffffffffffffffffffffffffffffff168373ffffffffffffffffffffffffffffffffffffffff167fddf252ad1be2c89b69c2b068fc378daa952ba7f163c4a11628f55a4df523b3ef84604051610fce9190611cbd565b60405180910390a3610fe28360008461128b565b505050565b600060019054906101000a900460ff168061100d575060008054906101000a900460ff16155b61104c576040517f08c379a000000000000000000000000000000000000000000000000000000000815260040161104390611bdd565b60405180910390fd5b60008060019054906101000a900460ff16159050801561109c576001600060016101000a81548160ff02191690831515021790555060016000806101000a81548160ff0219169083151502179055505b6110a4611290565b6110ae8383611369565b80156110cf5760008060016101000a81548160ff0219169083151502179055505b505050565b600060019054906101000a900460ff16806110fa575060008054906101000a900460ff16155b611139576040517f08c379a000000000000000000000000000000000000000000000000000000000815260040161113090611bdd565b60405180910390fd5b60008060019054906101000a900460ff161590508015611189576001600060016101000a81548160ff02191690831515021790555060016000806101000a81548160ff0219169083151502179055505b80156111aa5760008060016101000a81548160ff0219169083151502179055505b50565b600060019054906101000a900460ff16806111d3575060008054906101000a900460ff16155b611212576040517f08c379a000000000000000000000000000000000000000000000000000000000815260040161120990611bdd565b60405180910390fd5b60008060019054906101000a900460ff161590508015611262576001600060016101000a81548160ff02191690831515021790555060016000806101000a81548160ff0219169083151502179055505b80156112835760008060016101000a81548160ff0219169083151502179055505b50565b505050565b505050565b600060019054906101000a900460ff16806112b6575060008054906101000a900460ff16155b6112f5576040517f08c379a00000000000000000000000000000000000000000000000000000000081526004016112ec90611bdd565b60405180910390fd5b60008060019054906101000a900460ff161590508015611345576001600060016101000a81548160ff02191690831515021790555060016000806101000a81548160ff0219169083151502179055505b80156113665760008060016101000a81548160ff0219169083151502179055505b50565b600060019054906101000a900460ff168061138f575060008054906101000a900460ff16155b6113ce576040517f08c379a00000000000000000000000000000000000000000000000000000000081526004016113c590611bdd565b60405180910390fd5b60008060019054906101000a900460ff16159050801561141e576001600060016101000a81548160ff02191690831515021790555060016000806101000a81548160ff0219169083151502179055505b8260369080519060200190611434929190611472565b50816037908051906020019061144b929190611472565b50801561146d5760008060016101000a81548160ff0219169083151502179055505b505050565b82805461147e90611e21565b90600052602060002090601f0160209004810192826114a057600085556114e7565b82601f106114b957805160ff19168380011785556114e7565b828001600101855582156114e7579182015b828111156114e65782518255916020019190600101906114cb565b5b5090506114f491906114f8565b5090565b5b808211156115115760008160009055506001016114f9565b5090565b60008135905061152481611ec2565b92915050565b60008135905061153981611ed9565b92915050565b60006020828403121561155157600080fd5b600061155f84828501611515565b91505092915050565b6000806040838503121561157b57600080fd5b600061158985828601611515565b925050602061159a85828601611515565b9150509250929050565b6000806000606084860312156115b957600080fd5b60006115c786828701611515565b93505060206115d886828701611515565b92505060406115e98682870161152a565b9150509250925092565b6000806040838503121561160657600080fd5b600061161485828601611515565b92505060206116258582860161152a565b9150509250929050565b60006020828403121561164157600080fd5b600061164f8482850161152a565b91505092915050565b61166181611dab565b82525050565b600061167282611cf3565b61167c8185611cfe565b935061168c818560208601611dee565b61169581611eb1565b840191505092915050565b60006116ad602383611cfe565b91507f45524332303a207472616e7366657220746f20746865207a65726f206164647260008301527f65737300000000000000000000000000000000000000000000000000000000006020830152604082019050919050565b6000611713602283611cfe565b91507f45524332303a206275726e20616d6f756e7420657863656564732062616c616e60008301527f63650000000000000000000000000000000000000000000000000000000000006020830152604082019050919050565b6000611779602283611cfe565b91507f45524332303a20617070726f766520746f20746865207a65726f20616464726560008301527f73730000000000000000000000000000000000000000000000000000000000006020830152604082019050919050565b60006117df602683611cfe565b91507f45524332303a207472616e7366657220616d6f756e742065786365656473206260008301527f616c616e636500000000000000000000000000000000000000000000000000006020830152604082019050919050565b6000611845602e83611cfe565b91507f496e697469616c697a61626c653a20636f6e747261637420697320616c72656160008301527f647920696e697469616c697a65640000000000000000000000000000000000006020830152604082019050919050565b60006118ab602883611cfe565b91507f45524332303a207472616e7366657220616d6f756e742065786365656473206160008301527f6c6c6f77616e63650000000000000000000000000000000000000000000000006020830152604082019050919050565b6000611911602483611cfe565b91507f45524332303a206275726e20616d6f756e74206578636565647320616c6c6f7760008301527f616e6365000000000000000000000000000000000000000000000000000000006020830152604082019050919050565b6000611977602183611cfe565b91507f45524332303a206275726e2066726f6d20746865207a65726f2061646472657360008301527f73000000000000000000000000000000000000000000000000000000000000006020830152604082019050919050565b60006119dd602583611cfe565b91507f45524332303a207472616e736665722066726f6d20746865207a65726f20616460008301527f64726573730000000000000000000000000000000000000000000000000000006020830152604082019050919050565b6000611a43602483611cfe565b91507f45524332303a20617070726f76652066726f6d20746865207a65726f2061646460008301527f72657373000000000000000000000000000000000000000000000000000000006020830152604082019050919050565b6000611aa9602583611cfe565b91507f45524332303a2064656372656173656420616c6c6f77616e63652062656c6f7760008301527f207a65726f0000000000000000000000000000000000000000000000000000006020830152604082019050919050565b611b0b81611dd7565b82525050565b611b1a81611de1565b82525050565b6000602082019050611b356000830184611658565b92915050565b60006020820190508181036000830152611b558184611667565b905092915050565b60006020820190508181036000830152611b76816116a0565b9050919050565b60006020820190508181036000830152611b9681611706565b9050919050565b60006020820190508181036000830152611bb68161176c565b9050919050565b60006020820190508181036000830152611bd6816117d2565b9050919050565b60006020820190508181036000830152611bf681611838565b9050919050565b60006020820190508181036000830152611c168161189e565b9050919050565b60006020820190508181036000830152611c3681611904565b9050919050565b60006020820190508181036000830152611c568161196a565b9050919050565b60006020820190508181036000830152611c76816119d0565b9050919050565b60006020820190508181036000830152611c9681611a36565b9050919050565b60006020820190508181036000830152611cb681611a9c565b9050919050565b6000602082019050611cd26000830184611b02565b92915050565b6000602082019050611ced6000830184611b11565b92915050565b600081519050919050565b600082825260208201905092915050565b6000611d1a82611dd7565b9150611d2583611dd7565b9250827fffffffffffffffffffffffffffffffffffffffffffffffffffffffffffffffff03821115611d5a57611d59611e53565b5b828201905092915050565b6000611d7082611dd7565b9150611d7b83611dd7565b925082821015611d8e57611d8d611e53565b5b828203905092915050565b6000611da482611db7565b9050919050565b60008115159050919050565b600073ffffffffffffffffffffffffffffffffffffffff82169050919050565b6000819050919050565b600060ff82169050919050565b60005b83811015611e0c578082015181840152602081019050611df1565b83811115611e1b576000848401525b50505050565b60006002820490506001821680611e3957607f821691505b60208210811415611e4d57611e4c611e82565b5b50919050565b7f4e487b7100000000000000000000000000000000000000000000000000000000600052601160045260246000fd5b7f4e487b7100000000000000000000000000000000000000000000000000000000600052602260045260246000fd5b6000601f19601f8301169050919050565b611ecb81611d99565b8114611ed657600080fd5b50565b611ee281611dd7565b8114611eed57600080fd5b5056fea264697066735822122039e5fa800df270b27b78bae7831f16db08ea4c01e8a2efd05bd84f44f5e693ab64736f6c63430008000033",
  "linkReferences": {},
  "deployedLinkReferences": {}
}