{
  "_format": "hh-sol-artifact-1",
  "contractName": "Flink",
  "sourceName": "contracts/Flink.sol",
  "abi": [
    {
      "anonymous": false,
      "inputs": [
        {
          "indexed": true,
          "internalType": "address",
          "name": "owner",
          "type": "address"
        },
        {
          "indexed": true,
          "internalType": "address",
          "name": "spender",
          "type": "address"
        },
        {
          "indexed": false,
          "internalType": "uint256",
          "name": "value",
          "type": "uint256"
        }
      ],
      "name": "Approval",
      "type": "event"
    },
    {
      "anonymous": false,
      "inputs": [
        {
          "indexed": true,
          "internalType": "address",
          "name": "previousOwner",
          "type": "address"
        },
        {
          "indexed": true,
          "internalType": "address",
          "name": "newOwner",
          "type": "address"
        }
      ],
      "name": "OwnershipTransferred",
      "type": "event"
    },
    {
      "anonymous": false,
      "inputs": [
        {
          "indexed": true,
          "internalType": "address",
          "name": "from",
          "type": "address"
        },
        {
          "indexed": true,
          "internalType": "address",
          "name": "to",
          "type": "address"
        },
        {
          "indexed": false,
          "internalType": "uint256",
          "name": "value",
          "type": "uint256"
        }
      ],
      "name": "Transfer",
      "type": "event"
    },
    {
      "inputs": [],
      "name": "__Flink_init",
      "outputs": [],
      "stateMutability": "nonpayable",
      "type": "function"
    },
    {
      "inputs": [
        {
          "internalType": "address",
          "name": "owner",
          "type": "address"
        },
        {
          "internalType": "address",
          "name": "spender",
          "type": "address"
        }
      ],
      "name": "allowance",
      "outputs": [
        {
          "internalType": "uint256",
          "name": "",
          "type": "uint256"
        }
      ],
      "stateMutability": "view",
      "type": "function"
    },
    {
      "inputs": [
        {
          "internalType": "address",
          "name": "spender",
          "type": "address"
        },
        {
          "internalType": "uint256",
          "name": "amount",
          "type": "uint256"
        }
      ],
      "name": "approve",
      "outputs": [
        {
          "internalType": "bool",
          "name": "",
          "type": "bool"
        }
      ],
      "stateMutability": "nonpayable",
      "type": "function"
    },
    {
      "inputs": [
        {
          "internalType": "address",
          "name": "account",
          "type": "address"
        }
      ],
      "name": "balanceOf",
      "outputs": [
        {
          "internalType": "uint256",
          "name": "",
          "type": "uint256"
        }
      ],
      "stateMutability": "view",
      "type": "function"
    },
    {
      "inputs": [
        {
          "internalType": "uint256",
          "name": "amount",
          "type": "uint256"
        }
      ],
      "name": "burn",
      "outputs": [],
      "stateMutability": "nonpayable",
      "type": "function"
    },
    {
      "inputs": [
        {
          "internalType": "address",
          "name": "account",
          "type": "address"
        },
        {
          "internalType": "uint256",
          "name": "amount",
          "type": "uint256"
        }
      ],
      "name": "burnFrom",
      "outputs": [],
      "stateMutability": "nonpayable",
      "type": "function"
    },
    {
      "inputs": [],
      "name": "decimals",
      "outputs": [
        {
          "internalType": "uint8",
          "name": "",
          "type": "uint8"
        }
      ],
      "stateMutability": "view",
      "type": "function"
    },
    {
      "inputs": [
        {
          "internalType": "address",
          "name": "spender",
          "type": "address"
        },
        {
          "internalType": "uint256",
          "name": "subtractedValue",
          "type": "uint256"
        }
      ],
      "name": "decreaseAllowance",
      "outputs": [
        {
          "internalType": "bool",
          "name": "",
          "type": "bool"
        }
      ],
      "stateMutability": "nonpayable",
      "type": "function"
    },
    {
      "inputs": [
        {
          "internalType": "address",
          "name": "spender",
          "type": "address"
        },
        {
          "internalType": "uint256",
          "name": "addedValue",
          "type": "uint256"
        }
      ],
      "name": "increaseAllowance",
      "outputs": [
        {
          "internalType": "bool",
          "name": "",
          "type": "bool"
        }
      ],
      "stateMutability": "nonpayable",
      "type": "function"
    },
    {
      "inputs": [
        {
          "internalType": "address",
          "name": "to",
          "type": "address"
        },
        {
          "internalType": "uint256",
          "name": "amount",
          "type": "uint256"
        }
      ],
      "name": "mint",
      "outputs": [],
      "stateMutability": "nonpayable",
      "type": "function"
    },
    {
      "inputs": [],
      "name": "name",
      "outputs": [
        {
          "internalType": "string",
          "name": "",
          "type": "string"
        }
      ],
      "stateMutability": "view",
      "type": "function"
    },
    {
      "inputs": [],
      "name": "owner",
      "outputs": [
        {
          "internalType": "address",
          "name": "",
          "type": "address"
        }
      ],
      "stateMutability": "view",
      "type": "function"
    },
    {
      "inputs": [],
      "name": "renounceOwnership",
      "outputs": [],
      "stateMutability": "nonpayable",
      "type": "function"
    },
    {
      "inputs": [],
      "name": "symbol",
      "outputs": [
        {
          "internalType": "string",
          "name": "",
          "type": "string"
        }
      ],
      "stateMutability": "view",
      "type": "function"
    },
    {
      "inputs": [],
      "name": "totalSupply",
      "outputs": [
        {
          "internalType": "uint256",
          "name": "",
          "type": "uint256"
        }
      ],
      "stateMutability": "view",
      "type": "function"
    },
    {
      "inputs": [
        {
          "internalType": "address",
          "name": "recipient",
          "type": "address"
        },
        {
          "internalType": "uint256",
          "name": "amount",
          "type": "uint256"
        }
      ],
      "name": "transfer",
      "outputs": [
        {
          "internalType": "bool",
          "name": "",
          "type": "bool"
        }
      ],
      "stateMutability": "nonpayable",
      "type": "function"
    },
    {
      "inputs": [
        {
          "internalType": "address",
          "name": "sender",
          "type": "address"
        },
        {
          "internalType": "address",
          "name": "recipient",
          "type": "address"
        },
        {
          "internalType": "uint256",
          "name": "amount",
          "type": "uint256"
        }
      ],
      "name": "transferFrom",
      "outputs": [
        {
          "internalType": "bool",
          "name": "",
          "type": "bool"
        }
      ],
      "stateMutability": "nonpayable",
      "type": "function"
    },
    {
      "inputs": [
        {
          "internalType": "address",
          "name": "newOwner",
          "type": "address"
        }
      ],
      "name": "transferOwnership",
      "outputs": [],
      "stateMutability": "nonpayable",
      "type": "function"
    }
  ],
  "bytecode": "0x608060405234801561001057600080fd5b50612757806100206000396000f3fe608060405234801561001057600080fd5b50600436106101165760003560e01c8063715018a6116100a2578063a457c2d711610071578063a457c2d7146102cf578063a9059cbb146102ff578063dd62ed3e1461032f578063e492e1c81461035f578063f2fde38b1461036957610116565b8063715018a61461026d57806379cc6790146102775780638da5cb5b1461029357806395d89b41146102b157610116565b8063313ce567116100e9578063313ce567146101b757806339509351146101d557806340c10f191461020557806342966c681461022157806370a082311461023d57610116565b806306fdde031461011b578063095ea7b31461013957806318160ddd1461016957806323b872dd14610187575b600080fd5b610123610385565b604051610130919061230c565b60405180910390f35b610153600480360381019061014e9190611cb4565b610417565b60405161016091906122f1565b60405180910390f35b610171610435565b60405161017e91906124ee565b60405180910390f35b6101a1600480360381019061019c9190611c65565b61043f565b6040516101ae91906122f1565b60405180910390f35b6101bf610537565b6040516101cc9190612509565b60405180910390f35b6101ef60048036038101906101ea9190611cb4565b610540565b6040516101fc91906122f1565b60405180910390f35b61021f600480360381019061021a9190611cb4565b6105ec565b005b61023b60048036038101906102369190611cf0565b610676565b005b61025760048036038101906102529190611c00565b61068a565b60405161026491906124ee565b60405180910390f35b6102756106d3565b005b610291600480360381019061028c9190611cb4565b61075b565b005b61029b6107d6565b6040516102a891906122d6565b60405180910390f35b6102b9610800565b6040516102c6919061230c565b60405180910390f35b6102e960048036038101906102e49190611cb4565b610892565b6040516102f691906122f1565b60405180910390f35b61031960048036038101906103149190611cb4565b61097d565b60405161032691906122f1565b60405180910390f35b61034960048036038101906103449190611c29565b61099b565b60405161035691906124ee565b60405180910390f35b610367610a22565b005b610383600480360381019061037e9190611c00565b610b87565b005b60606068805461039490612652565b80601f01602080910402602001604051908101604052809291908181526020018280546103c090612652565b801561040d5780601f106103e25761010080835404028352916020019161040d565b820191906000526020600020905b8154815290600101906020018083116103f057829003601f168201915b5050505050905090565b600061042b610424610c7f565b8484610c87565b6001905092915050565b6000606754905090565b600061044c848484610e52565b6000606660008673ffffffffffffffffffffffffffffffffffffffff1673ffffffffffffffffffffffffffffffffffffffff1681526020019081526020016000206000610497610c7f565b73ffffffffffffffffffffffffffffffffffffffff1673ffffffffffffffffffffffffffffffffffffffff16815260200190815260200160002054905082811015610517576040517f08c379a000000000000000000000000000000000000000000000000000000000815260040161050e906123ee565b60405180910390fd5b61052b85610523610c7f565b858403610c87565b60019150509392505050565b60006012905090565b60006105e261054d610c7f565b84846066600061055b610c7f565b73ffffffffffffffffffffffffffffffffffffffff1673ffffffffffffffffffffffffffffffffffffffff16815260200190815260200160002060008873ffffffffffffffffffffffffffffffffffffffff1673ffffffffffffffffffffffffffffffffffffffff168152602001908152602001600020546105dd9190612540565b610c87565b6001905092915050565b6105f4610c7f565b73ffffffffffffffffffffffffffffffffffffffff166106126107d6565b73ffffffffffffffffffffffffffffffffffffffff1614610668576040517f08c379a000000000000000000000000000000000000000000000000000000000815260040161065f9061240e565b60405180910390fd5b61067282826110d6565b5050565b610687610681610c7f565b82611237565b50565b6000606560008373ffffffffffffffffffffffffffffffffffffffff1673ffffffffffffffffffffffffffffffffffffffff168152602001908152602001600020549050919050565b6106db610c7f565b73ffffffffffffffffffffffffffffffffffffffff166106f96107d6565b73ffffffffffffffffffffffffffffffffffffffff161461074f576040517f08c379a00000000000000000000000000000000000000000000000000000000081526004016107469061240e565b60405180910390fd5b6107596000611410565b565b600061076e83610769610c7f565b61099b565b9050818110156107b3576040517f08c379a00000000000000000000000000000000000000000000000000000000081526004016107aa9061242e565b60405180910390fd5b6107c7836107bf610c7f565b848403610c87565b6107d18383611237565b505050565b6000603360009054906101000a900473ffffffffffffffffffffffffffffffffffffffff16905090565b60606069805461080f90612652565b80601f016020809104026020016040519081016040528092919081815260200182805461083b90612652565b80156108885780601f1061085d57610100808354040283529160200191610888565b820191906000526020600020905b81548152906001019060200180831161086b57829003601f168201915b5050505050905090565b600080606660006108a1610c7f565b73ffffffffffffffffffffffffffffffffffffffff1673ffffffffffffffffffffffffffffffffffffffff16815260200190815260200160002060008573ffffffffffffffffffffffffffffffffffffffff1673ffffffffffffffffffffffffffffffffffffffff1681526020019081526020016000205490508281101561095e576040517f08c379a0000000000000000000000000000000000000000000000000000000008152600401610955906124ae565b60405180910390fd5b610972610969610c7f565b85858403610c87565b600191505092915050565b600061099161098a610c7f565b8484610e52565b6001905092915050565b6000606660008473ffffffffffffffffffffffffffffffffffffffff1673ffffffffffffffffffffffffffffffffffffffff16815260200190815260200160002060008373ffffffffffffffffffffffffffffffffffffffff1673ffffffffffffffffffffffffffffffffffffffff16815260200190815260200160002054905092915050565b600060019054906101000a900460ff1680610a48575060008054906101000a900460ff16155b610a87576040517f08c379a0000000000000000000000000000000000000000000000000000000008152600401610a7e906123ce565b60405180910390fd5b60008060019054906101000a900460ff161590508015610ad7576001600060016101000a81548160ff02191690831515021790555060016000806101000a81548160ff0219169083151502179055505b610b4b6040518060400160405280600581526020017f466c696e6b0000000000000000000000000000000000000000000000000000008152506040518060400160405280600581526020017f464c494e4b0000000000000000000000000000000000000000000000000000008152506114d6565b610b536115c3565b610b5b61169c565b610b63611785565b8015610b845760008060016101000a81548160ff0219169083151502179055505b50565b610b8f610c7f565b73ffffffffffffffffffffffffffffffffffffffff16610bad6107d6565b73ffffffffffffffffffffffffffffffffffffffff1614610c03576040517f08c379a0000000000000000000000000000000000000000000000000000000008152600401610bfa9061240e565b60405180910390fd5b600073ffffffffffffffffffffffffffffffffffffffff168173ffffffffffffffffffffffffffffffffffffffff161415610c73576040517f08c379a0000000000000000000000000000000000000000000000000000000008152600401610c6a9061236e565b60405180910390fd5b610c7c81611410565b50565b600033905090565b600073ffffffffffffffffffffffffffffffffffffffff168373ffffffffffffffffffffffffffffffffffffffff161415610cf7576040517f08c379a0000000000000000000000000000000000000000000000000000000008152600401610cee9061248e565b60405180910390fd5b600073ffffffffffffffffffffffffffffffffffffffff168273ffffffffffffffffffffffffffffffffffffffff161415610d67576040517f08c379a0000000000000000000000000000000000000000000000000000000008152600401610d5e9061238e565b60405180910390fd5b80606660008573ffffffffffffffffffffffffffffffffffffffff1673ffffffffffffffffffffffffffffffffffffffff16815260200190815260200160002060008473ffffffffffffffffffffffffffffffffffffffff1673ffffffffffffffffffffffffffffffffffffffff168152602001908152602001600020819055508173ffffffffffffffffffffffffffffffffffffffff168373ffffffffffffffffffffffffffffffffffffffff167f8c5be1e5ebec7d5bd14f71427d1e84f3dd0314c0f7b2291e5b200ac8c7c3b92583604051610e4591906124ee565b60405180910390a3505050565b600073ffffffffffffffffffffffffffffffffffffffff168373ffffffffffffffffffffffffffffffffffffffff161415610ec2576040517f08c379a0000000000000000000000000000000000000000000000000000000008152600401610eb99061246e565b60405180910390fd5b600073ffffffffffffffffffffffffffffffffffffffff168273ffffffffffffffffffffffffffffffffffffffff161415610f32576040517f08c379a0000000000000000000000000000000000000000000000000000000008152600401610f299061232e565b60405180910390fd5b610f3d83838361185e565b6000606560008573ffffffffffffffffffffffffffffffffffffffff1673ffffffffffffffffffffffffffffffffffffffff16815260200190815260200160002054905081811015610fc4576040517f08c379a0000000000000000000000000000000000000000000000000000000008152600401610fbb906123ae565b60405180910390fd5b818103606560008673ffffffffffffffffffffffffffffffffffffffff1673ffffffffffffffffffffffffffffffffffffffff1681526020019081526020016000208190555081606560008573ffffffffffffffffffffffffffffffffffffffff1673ffffffffffffffffffffffffffffffffffffffff16815260200190815260200160002060008282546110599190612540565b925050819055508273ffffffffffffffffffffffffffffffffffffffff168473ffffffffffffffffffffffffffffffffffffffff167fddf252ad1be2c89b69c2b068fc378daa952ba7f163c4a11628f55a4df523b3ef846040516110bd91906124ee565b60405180910390a36110d0848484611863565b50505050565b600073ffffffffffffffffffffffffffffffffffffffff168273ffffffffffffffffffffffffffffffffffffffff161415611146576040517f08c379a000000000000000000000000000000000000000000000000000000000815260040161113d906124ce565b60405180910390fd5b6111526000838361185e565b80606760008282546111649190612540565b9250508190555080606560008473ffffffffffffffffffffffffffffffffffffffff1673ffffffffffffffffffffffffffffffffffffffff16815260200190815260200160002060008282546111ba9190612540565b925050819055508173ffffffffffffffffffffffffffffffffffffffff16600073ffffffffffffffffffffffffffffffffffffffff167fddf252ad1be2c89b69c2b068fc378daa952ba7f163c4a11628f55a4df523b3ef8360405161121f91906124ee565b60405180910390a361123360008383611863565b5050565b600073ffffffffffffffffffffffffffffffffffffffff168273ffffffffffffffffffffffffffffffffffffffff1614156112a7576040517f08c379a000000000000000000000000000000000000000000000000000000000815260040161129e9061244e565b60405180910390fd5b6112b38260008361185e565b6000606560008473ffffffffffffffffffffffffffffffffffffffff1673ffffffffffffffffffffffffffffffffffffffff1681526020019081526020016000205490508181101561133a576040517f08c379a00000000000000000000000000000000000000000000000000000000081526004016113319061234e565b60405180910390fd5b818103606560008573ffffffffffffffffffffffffffffffffffffffff1673ffffffffffffffffffffffffffffffffffffffff1681526020019081526020016000208190555081606760008282546113929190612596565b92505081905550600073ffffffffffffffffffffffffffffffffffffffff168373ffffffffffffffffffffffffffffffffffffffff167fddf252ad1be2c89b69c2b068fc378daa952ba7f163c4a11628f55a4df523b3ef846040516113f791906124ee565b60405180910390a361140b83600084611863565b505050565b6000603360009054906101000a900473ffffffffffffffffffffffffffffffffffffffff16905081603360006101000a81548173ffffffffffffffffffffffffffffffffffffffff021916908373ffffffffffffffffffffffffffffffffffffffff1602179055508173ffffffffffffffffffffffffffffffffffffffff168173ffffffffffffffffffffffffffffffffffffffff167f8be0079c531659141344cd1fd0a4f28419497f9722a3daafe3b4186f6b6457e060405160405180910390a35050565b600060019054906101000a900460ff16806114fc575060008054906101000a900460ff16155b61153b576040517f08c379a0000000000000000000000000000000000000000000000000000000008152600401611532906123ce565b60405180910390fd5b60008060019054906101000a900460ff16159050801561158b576001600060016101000a81548160ff02191690831515021790555060016000806101000a81548160ff0219169083151502179055505b611593611868565b61159d8383611941565b80156115be5760008060016101000a81548160ff0219169083151502179055505b505050565b600060019054906101000a900460ff16806115e9575060008054906101000a900460ff16155b611628576040517f08c379a000000000000000000000000000000000000000000000000000000000815260040161161f906123ce565b60405180910390fd5b60008060019054906101000a900460ff161590508015611678576001600060016101000a81548160ff02191690831515021790555060016000806101000a81548160ff0219169083151502179055505b80156116995760008060016101000a81548160ff0219169083151502179055505b50565b600060019054906101000a900460ff16806116c2575060008054906101000a900460ff16155b611701576040517f08c379a00000000000000000000000000000000000000000000000000000000081526004016116f8906123ce565b60405180910390fd5b60008060019054906101000a900460ff161590508015611751576001600060016101000a81548160ff02191690831515021790555060016000806101000a81548160ff0219169083151502179055505b611759611868565b611761611a4a565b80156117825760008060016101000a81548160ff0219169083151502179055505b50565b600060019054906101000a900460ff16806117ab575060008054906101000a900460ff16155b6117ea576040517f08c379a00000000000000000000000000000000000000000000000000000000081526004016117e1906123ce565b60405180910390fd5b60008060019054906101000a900460ff16159050801561183a576001600060016101000a81548160ff02191690831515021790555060016000806101000a81548160ff0219169083151502179055505b801561185b5760008060016101000a81548160ff0219169083151502179055505b50565b505050565b505050565b600060019054906101000a900460ff168061188e575060008054906101000a900460ff16155b6118cd576040517f08c379a00000000000000000000000000000000000000000000000000000000081526004016118c4906123ce565b60405180910390fd5b60008060019054906101000a900460ff16159050801561191d576001600060016101000a81548160ff02191690831515021790555060016000806101000a81548160ff0219169083151502179055505b801561193e5760008060016101000a81548160ff0219169083151502179055505b50565b600060019054906101000a900460ff1680611967575060008054906101000a900460ff16155b6119a6576040517f08c379a000000000000000000000000000000000000000000000000000000000815260040161199d906123ce565b60405180910390fd5b60008060019054906101000a900460ff1615905080156119f6576001600060016101000a81548160ff02191690831515021790555060016000806101000a81548160ff0219169083151502179055505b8260689080519060200190611a0c929190611b33565b508160699080519060200190611a23929190611b33565b508015611a455760008060016101000a81548160ff0219169083151502179055505b505050565b600060019054906101000a900460ff1680611a70575060008054906101000a900460ff16155b611aaf576040517f08c379a0000000000000000000000000000000000000000000000000000000008152600401611aa6906123ce565b60405180910390fd5b60008060019054906101000a900460ff161590508015611aff576001600060016101000a81548160ff02191690831515021790555060016000806101000a81548160ff0219169083151502179055505b611b0f611b0a610c7f565b611410565b8015611b305760008060016101000a81548160ff0219169083151502179055505b50565b828054611b3f90612652565b90600052602060002090601f016020900481019282611b615760008555611ba8565b82601f10611b7a57805160ff1916838001178555611ba8565b82800160010185558215611ba8579182015b82811115611ba7578251825591602001919060010190611b8c565b5b509050611bb59190611bb9565b5090565b5b80821115611bd2576000816000905550600101611bba565b5090565b600081359050611be5816126f3565b92915050565b600081359050611bfa8161270a565b92915050565b600060208284031215611c1257600080fd5b6000611c2084828501611bd6565b91505092915050565b60008060408385031215611c3c57600080fd5b6000611c4a85828601611bd6565b9250506020611c5b85828601611bd6565b9150509250929050565b600080600060608486031215611c7a57600080fd5b6000611c8886828701611bd6565b9350506020611c9986828701611bd6565b9250506040611caa86828701611beb565b9150509250925092565b60008060408385031215611cc757600080fd5b6000611cd585828601611bd6565b9250506020611ce685828601611beb565b9150509250929050565b600060208284031215611d0257600080fd5b6000611d1084828501611beb565b91505092915050565b611d22816125ca565b82525050565b611d31816125dc565b82525050565b6000611d4282612524565b611d4c818561252f565b9350611d5c81856020860161261f565b611d65816126e2565b840191505092915050565b6000611d7d60238361252f565b91507f45524332303a207472616e7366657220746f20746865207a65726f206164647260008301527f65737300000000000000000000000000000000000000000000000000000000006020830152604082019050919050565b6000611de360228361252f565b91507f45524332303a206275726e20616d6f756e7420657863656564732062616c616e60008301527f63650000000000000000000000000000000000000000000000000000000000006020830152604082019050919050565b6000611e4960268361252f565b91507f4f776e61626c653a206e6577206f776e657220697320746865207a65726f206160008301527f64647265737300000000000000000000000000000000000000000000000000006020830152604082019050919050565b6000611eaf60228361252f565b91507f45524332303a20617070726f766520746f20746865207a65726f20616464726560008301527f73730000000000000000000000000000000000000000000000000000000000006020830152604082019050919050565b6000611f1560268361252f565b91507f45524332303a207472616e7366657220616d6f756e742065786365656473206260008301527f616c616e636500000000000000000000000000000000000000000000000000006020830152604082019050919050565b6000611f7b602e8361252f565b91507f496e697469616c697a61626c653a20636f6e747261637420697320616c72656160008301527f647920696e697469616c697a65640000000000000000000000000000000000006020830152604082019050919050565b6000611fe160288361252f565b91507f45524332303a207472616e7366657220616d6f756e742065786365656473206160008301527f6c6c6f77616e63650000000000000000000000000000000000000000000000006020830152604082019050919050565b600061204760208361252f565b91507f4f776e61626c653a2063616c6c6572206973206e6f7420746865206f776e65726000830152602082019050919050565b600061208760248361252f565b91507f45524332303a206275726e20616d6f756e74206578636565647320616c6c6f7760008301527f616e6365000000000000000000000000000000000000000000000000000000006020830152604082019050919050565b60006120ed60218361252f565b91507f45524332303a206275726e2066726f6d20746865207a65726f2061646472657360008301527f73000000000000000000000000000000000000000000000000000000000000006020830152604082019050919050565b600061215360258361252f565b91507f45524332303a207472616e736665722066726f6d20746865207a65726f20616460008301527f64726573730000000000000000000000000000000000000000000000000000006020830152604082019050919050565b60006121b960248361252f565b91507f45524332303a20617070726f76652066726f6d20746865207a65726f2061646460008301527f72657373000000000000000000000000000000000000000000000000000000006020830152604082019050919050565b600061221f60258361252f565b91507f45524332303a2064656372656173656420616c6c6f77616e63652062656c6f7760008301527f207a65726f0000000000000000000000000000000000000000000000000000006020830152604082019050919050565b6000612285601f8361252f565b91507f45524332303a206d696e7420746f20746865207a65726f2061646472657373006000830152602082019050919050565b6122c181612608565b82525050565b6122d081612612565b82525050565b60006020820190506122eb6000830184611d19565b92915050565b60006020820190506123066000830184611d28565b92915050565b600060208201905081810360008301526123268184611d37565b905092915050565b6000602082019050818103600083015261234781611d70565b9050919050565b6000602082019050818103600083015261236781611dd6565b9050919050565b6000602082019050818103600083015261238781611e3c565b9050919050565b600060208201905081810360008301526123a781611ea2565b9050919050565b600060208201905081810360008301526123c781611f08565b9050919050565b600060208201905081810360008301526123e781611f6e565b9050919050565b6000602082019050818103600083015261240781611fd4565b9050919050565b600060208201905081810360008301526124278161203a565b9050919050565b600060208201905081810360008301526124478161207a565b9050919050565b60006020820190508181036000830152612467816120e0565b9050919050565b6000602082019050818103600083015261248781612146565b9050919050565b600060208201905081810360008301526124a7816121ac565b9050919050565b600060208201905081810360008301526124c781612212565b9050919050565b600060208201905081810360008301526124e781612278565b9050919050565b600060208201905061250360008301846122b8565b92915050565b600060208201905061251e60008301846122c7565b92915050565b600081519050919050565b600082825260208201905092915050565b600061254b82612608565b915061255683612608565b9250827fffffffffffffffffffffffffffffffffffffffffffffffffffffffffffffffff0382111561258b5761258a612684565b5b828201905092915050565b60006125a182612608565b91506125ac83612608565b9250828210156125bf576125be612684565b5b828203905092915050565b60006125d5826125e8565b9050919050565b60008115159050919050565b600073ffffffffffffffffffffffffffffffffffffffff82169050919050565b6000819050919050565b600060ff82169050919050565b60005b8381101561263d578082015181840152602081019050612622565b8381111561264c576000848401525b50505050565b6000600282049050600182168061266a57607f821691505b6020821081141561267e5761267d6126b3565b5b50919050565b7f4e487b7100000000000000000000000000000000000000000000000000000000600052601160045260246000fd5b7f4e487b7100000000000000000000000000000000000000000000000000000000600052602260045260246000fd5b6000601f19601f8301169050919050565b6126fc816125ca565b811461270757600080fd5b50565b61271381612608565b811461271e57600080fd5b5056fea2646970667358221220b9ec71e46f5bc128d80d59ec32665bf2c2e841f28110c1b365b568d8308f5fab64736f6c63430008000033",
  "linkReferences": {},
  "deployedLinkReferences": {}
}